:10000000B8240020250B0000210B0000210B00006C
:1000100000000000000000000000000000000000E0
:10002000000000000000000000000000210B0000A4
:100030000000000000000000210B0000210B000068
:10004000210B0000210B0000210B0000210B000000
:10005000210B0000210B0000210B0000210B0000F0
:10006000210B0000210B0000210B0000210B0000E0
:10007000210B0000210B0000210B0000210B0000D0
:10008000210B0000210B0000210B0000210B0000C0
:10009000210B00000000000000000000210B000008
:1000A000210B0000210B0000210B0000210B0000A0
:1000B0000000000010B5064C2378002B07D1054B3B
:1000C000002B02D0044800E000BF0123237010BDC4
:1000D00034040020000000007C130000084B10B521
:1000E000002B03D00749084800E000BF0748036819
:1000F000002B00D110BD064B002BFBD09847F9E731
:1001000000000000380400207C1300007C13000075
:100110000000000082B0054B5843C0080190019BCD
:100120005A1E0192002BFAD102B0704780BB00002A
:1001300070B582B015001E006B46D97107334000C0
:10014000C4B2012219002000044B98473200290054
:100150002000034B9847002002B070BD010F000043
:100160006D0F000030B589B0040010001F2B00D9BE
:100170001F2301339DB26B4619702A00591C054B91
:1001800098476400E0B22A006946034B9847002074
:1001900009B030BD25100000950E000010B50E4CC2
:1001A000682363700023A3700C4BE3610C4B236244
:1001B0000C4B636220000C4B98470C236371093B86
:1001C000A371013BE3710F3323712000074B984764
:1001D000074B187010BDC0466004002031010000BC
:1001E0006501000015010000AD0900004D0A000086
:1001F0005004002070B572B60B4C0C4B002221004D
:1002000001200B4DA8470C220A4920000A4B9847B1
:10021000002802D162B6002070BD064A024B13CB03
:1002200013C262B60120F7E78804002060040020B2
:100230009D0A0000540400207D10000000280DD00D
:10024000C369002B0DD0036A002B0DD0436A002B2D
:1002500001D00020704701204042FBE701204042CE
:10026000F8E701204042F5E701204042F2E7022290
:10027000C27108234371102101710D398171C2735C
:1002800043730C3303730023837343688360C36831
:10029000036170474A790F2A0CD84B7A9A420CD0E6
:1002A00003780F218B4319000F2313400B43037076
:1002B0000020704704204042FBE70020F9E7CB799B
:1002C000022B08D8CA7A934208D00378702293434D
:1002D00003700020704704204042FBE70020F9E74C
:1002E0008A790C2A0CD88B7A9A420CD003780F2189
:1002F0008B4319000F2313400B43037000207047FA
:1003000004204042FBE70020F9E74A7B0D2A0CD885
:100310004B7C9A420CD003780F218B4319000F239A
:1003200013400B4303700020704704204042FBE75A
:100330000020F9E7CB7B022B09D8017830229143CA
:100340001A01302313400B43037000207047042030
:100350004042FBE78A7B042A0CD88B7C9A420CD063
:10036000037807218B431900072313400B430370C5
:100370000020704704204042FBE70020F9E770B5F9
:1003800006001C1E17D0DD69002D17D09B78012BAD
:100390000CD0607813000A003100A8470500636A9A
:1003A00001209847002D0CD1280070BD80204042CC
:1003B0000643F6B2EDE701256D42F5E701256D42F2
:1003C000F2E702256D42EFE770B504000D000B0067
:1003D0000222010040200B4EB047002800D070BD23
:1003E00029002000084B98470028F8D12900200058
:1003F000064B98470028F2D1601C2900044B98470F
:10040000EDE7C0467F03000095020000BF02000038
:10041000E102000070B504000D000B000222010093
:1004200042200B4EB047002800D070BD29002000AC
:10043000084B98470028F8D129002000064B984720
:100440000028F2D1601C2900044B9847EDE7C04614
:100450007F0300000B03000035030000550300007C
:1004600030B583B003006A46D41D002222700132E9
:10047000210002200D4DA847227852080F23134077
:10048000012B07D0022B08D0032B09D0072B0AD051
:1004900003B030BD06204042FAE707204042F7E7AC
:1004A00008204042F4E709204042F1E77F030000C2
:1004B00070B584B005000C0016000922002101A8C7
:1004C000174B9847AA1D330001A91220154EB047BB
:1004D000002822D101AA53781B021BB211780B43CA
:1004E0002380D3781B021BB291780B43638053792E
:1004F0001B021BB212791343A380032D03D00023E8
:10050000A36004B070BD01A98A79CB791B02097A76
:1005100009040B431343A360F3E702204042F0E7D2
:10052000691100007F03000070B584B005000C0065
:1005300016000F22002168462C4B9847002D23D12E
:100540003300062269460C20294DA847002847D1D0
:100550006B465B781B021BB26A46127813432380FA
:100560006B46DB781B021BB26A46927813436380AA
:100570006B465B791B021BB26A4612791343A38058
:100580000023A36004B070BD2A000C32330069461A
:100590000C20174DA847002825D16B465B781B021D
:1005A0001BB26A461278134323806B46DB781B022A
:1005B0001BB26A469278134363806B465B791B02D9
:1005C0001BB26A4612791343A3806B461A7B5B7B8E
:1005D0001B026946897B09040B431343A360D1E7DF
:1005E00002204042CEE702204042CBE769110000E2
:1005F0007F030000F0B585B006000D0014001F0059
:100600000F2200216846284B984732000C323B00ED
:1006100069460C20254FB847002842D16B465B78CD
:100620001B021BB26A461278134323806B46DB78A9
:100630001B021BB26A469278134363806B465B7958
:100640001B021BB26A4612791343A3806B46DB7907
:100650001B021BB26A46927913432B806B465B7A6E
:100660001B021BB26A46127A13436B806B46DB7A1D
:100670001B021BB26A46927A1343AB80032E04D04E
:100680000023AB60A36005B0F0BD6B461A7B5B7BBB
:100690001B026946897B09040B431343AB60A360CB
:1006A000F1E702204042EEE7691100007F030000FD
:1006B000F8B5CE46474680B50600894690461F1ECF
:1006C00035D01C6A002C36D09B78012B09D03B7AA0
:1006D000112B09D03B7C152B06D0002400231D00D4
:1006E0001BE07E331E40F2E7787843464A463100ED
:1006F000A04705007B6A0120984711E078784B46B7
:100700001A19012331003D6AA84705000136F6B2E7
:1007100001207B6A98470134E4B2A3B24345EDD38C
:10072000002D0CD128000CBC90469946F8BD012341
:100730005B421D00F6E701235B421D00F2E7022346
:100740005B421D00EEE7000030B583B0040001A855
:10075000002303802100104B9847002801D003B0EC
:1007600030BD2300012201A940300C4DA8470028CC
:10077000F5D163796372E379E3720130636A984774
:1007800023000122694605314120044DA847002875
:10079000E5D1A379A372E2E7C9030000B106000026
:1007A00030B583B0040001A8002303802100104B62
:1007B0009847002801D003B030BD2300012201A9D1
:1007C00042300C4DA8470028F5D1637B6374E37B6E
:1007D000E3740130636A98472300012269460531BA
:1007E0004320044DA8470028E5D1A37BA374E2E78A
:1007F00015040000B106000070B582B005000C00C1
:1008000000226B46DA710B00013201004020164EC7
:10081000B047002806D12379122B05D02B785AB285
:10082000002A17DB02B070BD2A786D331A40FF3BF7
:1008300013432B7023000122290040300B4DA847A1
:100840000028EFD123000222694607315830074CB7
:10085000A047E7E77F2213402B7023007E3A290050
:100860004020024CA047DDE77F030000B1060000F6
:1008700030B583B0040000226B46DA7102791300B0
:10088000103BDBB2022B1DD8037A9A421DD0010027
:100890006B46D81D0E4B9847051E02D0280003B0AA
:1008A00030BD211D230001227E200A4DA8470500EE
:1008B000237A102B02D023792372EFE70520636A95
:1008C0009847F8E704256D42E8E70025E6E7C046CB
:1008D000F9070000B106000070B50400027B1300A8
:1008E000143BDBB2012B01D9172A1ED1237C9A427B
:1008F0001ED021000C31230001227E200D4DA8477F
:100900000500237C142B05D0172B07D0237B2374E1
:10091000280070BD5120636A9847F7E7237B152BA9
:10092000F4D10A20636A9847F0E704256D42EFE7A7
:100930000025EDE7B106000030B583B00500B62212
:100940006B46DA71002824D0436A002B24D00300C0
:10095000B53A694607317E20114CA04704000F20AC
:100960006B6A9847002C02D1AB78012B04D0002C85
:100970000BD0200003B030BD2B00012269460731A7
:100980007F20084CA0470400F1E72800064B984759
:10099000EFE701246442ECE701246442E9E7C04642
:1009A000B10600007F0300006F02000030B583B085
:1009B0000400164B9847002802D1A378012B03D0DE
:1009C000002809D003B030BD230001226946073159
:1009D0007F300F4DA847F3E7230001226946063117
:1009E0000B4DA84700280BD16B4606331B78D12B43
:1009F00009D123702E33E3702000064B9847E1E7BE
:100A000003204042DEE703204042DBE73D020000D6
:100A10007F0300003909000010B5041E0BD0436AA3
:100A2000002B0BD0074B9847002800D010BD2000AA
:100A3000054B9847FAE701204042F7E70120404282
:100A4000F4E7C04671080000D908000010B5041E84
:100A500015D0436A002B15D00C4B9847002800D0C6
:100A600010BD20000A4B98470028F9D12000094BFF
:100A700098470028F4D12000074B9847F0E7012061
:100A80004042EDE701204042EAE7C0464907000046
:100A9000A1070000190A00006104000070B51600EB
:100AA00007240440A40803250540002C0BD1002096
:100AB000002B1FD0022D0ED0032D13D0012D04D0FA
:100AC0000520404270BD0320F2E7002915D01A002E
:100AD000104B9847F6E7002E12D01A0031000E4B4B
:100AE0009847EFE7002E0ED000290FD032000B4CB4
:100AF000A047E7E701204042E4E701204042E1E768
:100B000001204042DEE701204042DBE70120404275
:100B1000D8E7C046B104000029050000F505000033
:100B2000FEE70000F8B5234A234B9A4209D0224B36
:100B3000204A03E011681960043304321F498B42D4
:100B4000F8D31F4B02E000221A6004331D4A93427F
:100B5000F9D31D4AFF211D4B8B439360FD39902330
:100B60005B001B4AD1501B4AD3780325AB430224B8
:100B70002343D370D3780C27BB4308263343D37069
:100B8000154B987B30229043202210439873997B19
:100B9000B943314399739A7BAA4322439A730F4A0C
:100BA000516880230B4353600D4B98470D4B98477A
:100BB000FEE7C0467C130000000000203404002043
:100BC00034040020B804002000ED00E00000000024
:100BD00000700041005000410048004100400041C9
:100BE00035100000ED0F000055494A681E239A4356
:100BF0001C3B13434B60534A936908210B43936199
:100C0000514B524A9A829A8A02210A439A824E4B47
:100C1000DB689B07FBD501224D4B1A704C4B1B78B0
:100C2000DB0704D54A4B5B785BB2002BF6DB012275
:100C3000474B9A60464B5B785BB2002BFADB454A28
:100C4000434B5A60424B5B785BB2002BFADB82224B
:100C5000D2013F4B5A803E4B5B785BB2002BFADBF4
:100C6000394A938C80218B439384374BDB68DB06B6
:100C7000FBD5394A344BDA62334BDB68DB06FBD5F4
:100C8000314A938C35490B4393842F4BDB68DB0649
:100C9000FBD52D4A938C02210B439BB293842A4BA4
:100CA000DB681B06FBD5284BDB685B06F7D5264BBC
:100CB000DB68DB06FBD50022254B9A60244B5B7872
:100CC0005BB2002BFADB264A214B5A60204B5B7843
:100CD0005BB2002BFADB1C4B196A224A11408022BE
:100CE00052000A431A62196A802291431962184B12
:100CF00003229A601C4A5A60154B5B785BB2002B4A
:100D0000FADB104B00221A725A729A72DA72174A80
:100D1000174B1A60174B1968CA0807231340164A65
:100D20001268D20E4901FF2001401B020A431343FF
:100D3000124A1385024A516880230B43536070475F
:100D40000040004100040040000800400C06000084
:100D5000000C004001050100B805FF7D040A0000F9
:100D600000070300FFFCFFFF03060100006CDC022C
:100D700000000020246080002060800000400042CD
:100D8000F0B53F4B8020000498605722995C022404
:100D9000214399549861995C04208446604601433C
:100DA0009954995C0127394399543B201A5C0F21CF
:100DB00011402022114319548021C9039960562201
:100DC0009E5C26439E5499619D5C61460D439D54F3
:100DD000995C394399541A5C0F218A4322431A546F
:100DE000284A136A11310B431362274A274B5A8052
:100DF000274B1968022291431960254BDB69002BB0
:100E0000FBD1234A51680133FF330B435360204B1E
:100E1000DB69002BFBD1E8221D4BDA601C4BDB6940
:100E2000002BFBD11A490A681C339A43083B134331
:100E30000B60174BDB69002BFBD1154B1B68144B68
:100E4000DB69002BFBD1124A116802330B4313609C
:100E50000F4BDB69002BFBD10D4A538B10210B4349
:100E60009BB253830A4BDB69002BFBD1084B9A7D65
:100E700001210A439A759A7D02210A439A75F0BDB1
:100E8000004400410004004017400000000C0040F6
:100E90000014004230B5194B5862184B1B7EDB071B
:100EA000FBD5164B5B8B5B0710D4002090421DDAFC
:100EB0000D5C2823114CE554104B1B7EDB07FBD542
:100EC0000E4B5B8B5B0709D40130EFE70B4A51688F
:100ED000C0239B020B435360002030BD074A51687A
:100EE000C0239B020B4353600020F6E70349486888
:100EF000C0239B0203434B60D0B2EEE700140042D4
:100F000030B5194B5862184B1B7EDB07FBD5164BCF
:100F10005B8B5B0710D4002090421DDA0D5C282308
:100F2000114CE554104B1B7EDB07FBD50E4B5B8B46
:100F30005B0709D40130EFE70B4A5168C0239B02DD
:100F40000B435360002030BD074A5168C0239B0209
:100F50000B4353600020F6E70349486880235B0297
:100F600003434B60D0B2EEE70014004210B50123FA
:100F70001843C0B21B4B58621A4B1B7E9B07FBD514
:100F8000184B5B8B5B0706D416484368164C23400E
:100F90004360002010E0134A5168C0239B020B43BA
:100FA000536000201DE028230E4CE35C0B540D4BD6
:100FB0001B7E9B07FBD50130531E9842F3DB002AB2
:100FC0000ED0084B5C688020C002204358605C68EB
:100FD000C020800220435860501E28241B5D0B5403
:100FE000D0B210BD00140042FFFFFBFF00B583B07C
:100FF000074B9847074B9847074B9847074B98472D
:10100000074B0193019B5A1E0192002BFAD1F5E781
:10101000E90B0000810D00009D010000F5010000BA
:10102000C0C62D000B0010B50100180000F04CF8F0
:1010300010BDC04670B50D4E0D4D0024AD1BAD105A
:1010400005D0A300F35801349847A542F9D100F028
:1010500083F9084E084D0024AD1BAD1005D0A30048
:10106000F35801349847A542F9D170BD64130000CC
:1010700064130000641300006C13000010B5032A11
:101080001CD903000B439B070FD003780C78821800
:10109000A34204D015E003780C78A34211D10130AB
:1010A00001318242F7D1002010BD03680C68A342D1
:1010B000EBD1043A04300431032AF6D8002AE4D1F3
:1010C000F1E7181BF0E7C046F0B588420AD98B1843
:1010D000984207D2531E002A03D0CA5CC254013B77
:1010E000FBD2F0BD05000F2A08D8002AF9D0002352
:1010F000CC5CEC5401339342FAD1F2E70B0003438A
:101100009B072DD115000C000300103D2F0901375E
:101110003F01C71926681E6066685E60A6689E600B
:10112000E6681034DE6010339F42F3D10F24A543EC
:101130001035491914404519032C13D90023271FD2
:10114000BE080136B600CC58EC500433B342FAD195
:101150000326B7433C1D09192D193240C7D1C0E7FA
:101160000500C4E72200C0E7F0B5830743D0541E52
:10117000002A3FD0CEB20200032502E01A00013C53
:1011800038D3531C16702B42F8D1032C2AD9FF22D6
:101190000A40150215432A0415430F2C14D92700C1
:1011A0001A00103F3E09013636019E191560556040
:1011B0009560D56010329642F8D10F2297431037D0
:1011C000DB191440032C0DD91A00271FBE08013665
:1011D000B6009E1920C2B242FCD1032297430437C5
:1011E000DB191440002C05D0C9B21C191970013349
:1011F0009C42FBD1F0BD14000300C6E7034B10B5C1
:10120000002B02D0024800F005F810BD00000000DD
:101210002512000010B5010000230022002000F07C
:101220001FF810BD70B5094B094CE41AA41009D081
:10123000084AA518AD00ED182B68013C9847043DFD
:10124000002CF9D100F092F870BDC0467813000070
:101250007C130000FFFFFF3F7047C0467047C04649
:10126000F0B54E464546DE465746E0B5364D83B0AE
:101270000600286898460F009146FFF7EDFF334BB4
:101280001C68A4235B00E058002852D043681F2B41
:1012900013DC5A1C0192002E28D1019A02339B00C4
:1012A00042601F502868FFF7D9FF002003B03CBC04
:1012B00090469946A246AB46F0BD254B002B3DD04B
:1012C000C820400000E000BF002837D0A42200233F
:1012D0005200A15843600160A05040328350043254
:1012E0008350013301930023002ED6D09A009246FA
:1012F00082444A46882154466250C4225200914694
:1013000081444A468739994012688B460A4394467D
:101310004A4661461160842241465200A150022E85
:10132000BBD102005C468D32FF3211680C43146061
:10133000B3E720004D30FF30E050A7E72868FFF703
:101340008DFF01204042B1E730040020541300001B
:101350000000000008000020F8B5C046F8BC08BC3A
:101360009E467047FD110000DD000000F8B5C04644
:0C137000F8BC08BC9E467047B5000000A9
:10137C0040420F000000000000000000F4020020BA
:10138C005C030020C40300200000000000000000EB
:10139C000000000000000000000000000000000041
:1013AC000000000000000000000000000000000031
:1013BC000000000000000000000000000000000021
:1013CC000000000000000000000000000000000011
:1013DC000000000000000000000000000000000001
:1013EC0000000000000000000000000000000000F1
:1013FC0000000000000000000000000000000000E1
:10140C0000000000000000000000000000000000D0
:10141C0000000000000000000000000000000000C0
:10142C0001000000000000000E33CDAB34126DE65D
:10143C00ECDE05000B0000000000000000000000C6
:10144C000000000000000000000000000000000090
:10145C000000000000000000000000000000000080
:10146C000000000000000000000000000000000070
:10147C000000000000000000000000000000000060
:0417AC009404002081
:00000001FF
